{
  "_format": "hh-sol-artifact-1",
  "contractName": "LiquidityPool",
  "sourceName": "contracts/LiquidityPool.sol",
  "abi": [
    {
      "inputs": [
        {
          "internalType": "address",
          "name": "_spaceCoin",
          "type": "address"
        }
      ],
      "stateMutability": "nonpayable",
      "type": "constructor"
    },
    {
      "inputs": [
        {
          "internalType": "address",
          "name": "",
          "type": "address"
        }
      ],
      "name": "BurnTransferEthToError",
      "type": "error"
    },
    {
      "inputs": [
        {
          "internalType": "uint256",
          "name": "_ethIn",
          "type": "uint256"
        },
        {
          "internalType": "uint256",
          "name": "_spcIn",
          "type": "uint256"
        }
      ],
      "name": "InsufficientInAmount",
      "type": "error"
    },
    {
      "inputs": [
        {
          "internalType": "uint256",
          "name": "_amountOut",
          "type": "uint256"
        },
        {
          "internalType": "uint256",
          "name": "_reserve",
          "type": "uint256"
        }
      ],
      "name": "InsufficientLiquidity",
      "type": "error"
    },
    {
      "inputs": [
        {
          "internalType": "uint256",
          "name": "_ethOut",
          "type": "uint256"
        },
        {
          "internalType": "uint256",
          "name": "_spcOut",
          "type": "uint256"
        }
      ],
      "name": "InsuffiecientLiquidityBurned",
      "type": "error"
    },
    {
      "inputs": [],
      "name": "LiquidityPoolLocked",
      "type": "error"
    },
    {
      "inputs": [],
      "name": "NoLiquidityInPool",
      "type": "error"
    },
    {
      "inputs": [
        {
          "internalType": "address",
          "name": "",
          "type": "address"
        }
      ],
      "name": "NoLiquidityProvided",
      "type": "error"
    },
    {
      "inputs": [
        {
          "internalType": "uint256",
          "name": "_ethIn",
          "type": "uint256"
        },
        {
          "internalType": "uint256",
          "name": "_spcIn",
          "type": "uint256"
        }
      ],
      "name": "OnlyOneTokenInAllowed",
      "type": "error"
    },
    {
      "inputs": [
        {
          "internalType": "uint256",
          "name": "_ethReserve",
          "type": "uint256"
        },
        {
          "internalType": "uint256",
          "name": "_spcReserve",
          "type": "uint256"
        }
      ],
      "name": "ReservesAmountInvalid",
      "type": "error"
    },
    {
      "inputs": [
        {
          "internalType": "address",
          "name": "",
          "type": "address"
        },
        {
          "internalType": "uint256",
          "name": "_amountOut",
          "type": "uint256"
        }
      ],
      "name": "SwapTransferEthToError",
      "type": "error"
    },
    {
      "inputs": [],
      "name": "WrongDepositInput",
      "type": "error"
    },
    {
      "inputs": [
        {
          "internalType": "uint256",
          "name": "",
          "type": "uint256"
        },
        {
          "internalType": "uint256",
          "name": "",
          "type": "uint256"
        }
      ],
      "name": "WrongKValueAfterSwap",
      "type": "error"
    },
    {
      "anonymous": false,
      "inputs": [
        {
          "indexed": true,
          "internalType": "address",
          "name": "owner",
          "type": "address"
        },
        {
          "indexed": true,
          "internalType": "address",
          "name": "spender",
          "type": "address"
        },
        {
          "indexed": false,
          "internalType": "uint256",
          "name": "value",
          "type": "uint256"
        }
      ],
      "name": "Approval",
      "type": "event"
    },
    {
      "anonymous": false,
      "inputs": [
        {
          "indexed": true,
          "internalType": "address",
          "name": "sender",
          "type": "address"
        },
        {
          "indexed": false,
          "internalType": "uint256",
          "name": "ethOut",
          "type": "uint256"
        },
        {
          "indexed": false,
          "internalType": "uint256",
          "name": "spcOut",
          "type": "uint256"
        }
      ],
      "name": "Burned",
      "type": "event"
    },
    {
      "anonymous": false,
      "inputs": [
        {
          "indexed": true,
          "internalType": "address",
          "name": "sender",
          "type": "address"
        },
        {
          "indexed": false,
          "internalType": "uint256",
          "name": "ethIn",
          "type": "uint256"
        },
        {
          "indexed": false,
          "internalType": "uint256",
          "name": "spcIn",
          "type": "uint256"
        }
      ],
      "name": "Minted",
      "type": "event"
    },
    {
      "anonymous": false,
      "inputs": [
        {
          "indexed": true,
          "internalType": "address",
          "name": "sender",
          "type": "address"
        },
        {
          "indexed": false,
          "internalType": "string",
          "name": "direction",
          "type": "string"
        },
        {
          "indexed": false,
          "internalType": "uint256",
          "name": "ethIn",
          "type": "uint256"
        },
        {
          "indexed": false,
          "internalType": "uint256",
          "name": "ethOut",
          "type": "uint256"
        },
        {
          "indexed": false,
          "internalType": "uint256",
          "name": "spcIn",
          "type": "uint256"
        },
        {
          "indexed": false,
          "internalType": "uint256",
          "name": "spcOut",
          "type": "uint256"
        }
      ],
      "name": "Swapped",
      "type": "event"
    },
    {
      "anonymous": false,
      "inputs": [
        {
          "indexed": true,
          "internalType": "address",
          "name": "from",
          "type": "address"
        },
        {
          "indexed": true,
          "internalType": "address",
          "name": "to",
          "type": "address"
        },
        {
          "indexed": false,
          "internalType": "uint256",
          "name": "value",
          "type": "uint256"
        }
      ],
      "name": "Transfer",
      "type": "event"
    },
    {
      "inputs": [
        {
          "internalType": "address",
          "name": "owner",
          "type": "address"
        },
        {
          "internalType": "address",
          "name": "spender",
          "type": "address"
        }
      ],
      "name": "allowance",
      "outputs": [
        {
          "internalType": "uint256",
          "name": "",
          "type": "uint256"
        }
      ],
      "stateMutability": "view",
      "type": "function"
    },
    {
      "inputs": [
        {
          "internalType": "address",
          "name": "spender",
          "type": "address"
        },
        {
          "internalType": "uint256",
          "name": "amount",
          "type": "uint256"
        }
      ],
      "name": "approve",
      "outputs": [
        {
          "internalType": "bool",
          "name": "",
          "type": "bool"
        }
      ],
      "stateMutability": "nonpayable",
      "type": "function"
    },
    {
      "inputs": [
        {
          "internalType": "address",
          "name": "account",
          "type": "address"
        }
      ],
      "name": "balanceOf",
      "outputs": [
        {
          "internalType": "uint256",
          "name": "",
          "type": "uint256"
        }
      ],
      "stateMutability": "view",
      "type": "function"
    },
    {
      "inputs": [
        {
          "internalType": "uint256",
          "name": "liquidity",
          "type": "uint256"
        },
        {
          "internalType": "address",
          "name": "to",
          "type": "address"
        }
      ],
      "name": "burn",
      "outputs": [
        {
          "internalType": "uint256",
          "name": "",
          "type": "uint256"
        },
        {
          "internalType": "uint256",
          "name": "",
          "type": "uint256"
        }
      ],
      "stateMutability": "nonpayable",
      "type": "function"
    },
    {
      "inputs": [],
      "name": "decimals",
      "outputs": [
        {
          "internalType": "uint8",
          "name": "",
          "type": "uint8"
        }
      ],
      "stateMutability": "view",
      "type": "function"
    },
    {
      "inputs": [
        {
          "internalType": "address",
          "name": "spender",
          "type": "address"
        },
        {
          "internalType": "uint256",
          "name": "subtractedValue",
          "type": "uint256"
        }
      ],
      "name": "decreaseAllowance",
      "outputs": [
        {
          "internalType": "bool",
          "name": "",
          "type": "bool"
        }
      ],
      "stateMutability": "nonpayable",
      "type": "function"
    },
    {
      "inputs": [],
      "name": "getReserves",
      "outputs": [
        {
          "internalType": "uint256",
          "name": "",
          "type": "uint256"
        },
        {
          "internalType": "uint256",
          "name": "",
          "type": "uint256"
        }
      ],
      "stateMutability": "view",
      "type": "function"
    },
    {
      "inputs": [
        {
          "internalType": "address",
          "name": "spender",
          "type": "address"
        },
        {
          "internalType": "uint256",
          "name": "addedValue",
          "type": "uint256"
        }
      ],
      "name": "increaseAllowance",
      "outputs": [
        {
          "internalType": "bool",
          "name": "",
          "type": "bool"
        }
      ],
      "stateMutability": "nonpayable",
      "type": "function"
    },
    {
      "inputs": [
        {
          "internalType": "address",
          "name": "to",
          "type": "address"
        }
      ],
      "name": "mint",
      "outputs": [
        {
          "internalType": "uint256",
          "name": "",
          "type": "uint256"
        }
      ],
      "stateMutability": "payable",
      "type": "function"
    },
    {
      "inputs": [],
      "name": "name",
      "outputs": [
        {
          "internalType": "string",
          "name": "",
          "type": "string"
        }
      ],
      "stateMutability": "view",
      "type": "function"
    },
    {
      "inputs": [],
      "name": "spaceCoin",
      "outputs": [
        {
          "internalType": "contract SpaceCoin",
          "name": "",
          "type": "address"
        }
      ],
      "stateMutability": "view",
      "type": "function"
    },
    {
      "inputs": [
        {
          "internalType": "address",
          "name": "to",
          "type": "address"
        }
      ],
      "name": "swap",
      "outputs": [
        {
          "internalType": "uint256",
          "name": "",
          "type": "uint256"
        }
      ],
      "stateMutability": "payable",
      "type": "function"
    },
    {
      "inputs": [],
      "name": "symbol",
      "outputs": [
        {
          "internalType": "string",
          "name": "",
          "type": "string"
        }
      ],
      "stateMutability": "view",
      "type": "function"
    },
    {
      "inputs": [],
      "name": "sync",
      "outputs": [],
      "stateMutability": "nonpayable",
      "type": "function"
    },
    {
      "inputs": [],
      "name": "totalSupply",
      "outputs": [
        {
          "internalType": "uint256",
          "name": "",
          "type": "uint256"
        }
      ],
      "stateMutability": "view",
      "type": "function"
    },
    {
      "inputs": [
        {
          "internalType": "address",
          "name": "to",
          "type": "address"
        },
        {
          "internalType": "uint256",
          "name": "amount",
          "type": "uint256"
        }
      ],
      "name": "transfer",
      "outputs": [
        {
          "internalType": "bool",
          "name": "",
          "type": "bool"
        }
      ],
      "stateMutability": "nonpayable",
      "type": "function"
    },
    {
      "inputs": [
        {
          "internalType": "address",
          "name": "from",
          "type": "address"
        },
        {
          "internalType": "address",
          "name": "to",
          "type": "address"
        },
        {
          "internalType": "uint256",
          "name": "amount",
          "type": "uint256"
        }
      ],
      "name": "transferFrom",
      "outputs": [
        {
          "internalType": "bool",
          "name": "",
          "type": "bool"
        }
      ],
      "stateMutability": "nonpayable",
      "type": "function"
    }
  ],
  "bytecode": "0x60a06040526007805460ff191660011790553480156200001e57600080fd5b506040516200197f3803806200197f833981016040819052620000419162000177565b604080518082018252601481527f45746865722d5370616365436f696e205061697200000000000000000000000060208083019182528351808501909452600884526704554485350434c560c41b908401528151919291620000a691600391620000d1565b508051620000bc906004906020840190620000d1565b5050506001600160a01b0316608052620001e6565b828054620000df90620001a9565b90600052602060002090601f0160209004810192826200010357600085556200014e565b82601f106200011e57805160ff19168380011785556200014e565b828001600101855582156200014e579182015b828111156200014e57825182559160200191906001019062000131565b506200015c92915062000160565b5090565b5b808211156200015c576000815560010162000161565b6000602082840312156200018a57600080fd5b81516001600160a01b0381168114620001a257600080fd5b9392505050565b600181811c90821680620001be57607f821691505b60208210811415620001e057634e487b7160e01b600052602260045260246000fd5b50919050565b6080516117616200021e600039600081816102e5015281816104d601528181610b9f01528181610d220152610dd101526117616000f3fe6080604052600436106100fe5760003560e01c80636a62784211610095578063a9059cbb11610064578063a9059cbb14610293578063dd62ed3e146102b3578063e48575d4146102d3578063fcd3533c1461031f578063fff6cae91461033f57600080fd5b80636a6278421461021557806370a082311461022857806395d89b411461025e578063a457c2d71461027357600080fd5b806318160ddd116100d157806318160ddd146101a457806323b872dd146101b9578063313ce567146101d957806339509351146101f557600080fd5b806303438dd01461010357806306fdde03146101295780630902f1ac1461014b578063095ea7b314610174575b600080fd5b6101166101113660046114c7565b610356565b6040519081526020015b60405180910390f35b34801561013557600080fd5b5061013e6107b6565b604051610120919061152f565b34801561015757600080fd5b506005546006545b60408051928352602083019190915201610120565b34801561018057600080fd5b5061019461018f366004611542565b610848565b6040519015158152602001610120565b3480156101b057600080fd5b50600254610116565b3480156101c557600080fd5b506101946101d436600461156c565b610860565b3480156101e557600080fd5b5060405160128152602001610120565b34801561020157600080fd5b50610194610210366004611542565b610884565b6101166102233660046114c7565b6108a6565b34801561023457600080fd5b506101166102433660046114c7565b6001600160a01b031660009081526020819052604090205490565b34801561026a57600080fd5b5061013e6109cf565b34801561027f57600080fd5b5061019461028e366004611542565b6109de565b34801561029f57600080fd5b506101946102ae366004611542565b610a59565b3480156102bf57600080fd5b506101166102ce3660046115a8565b610a67565b3480156102df57600080fd5b506103077f000000000000000000000000000000000000000000000000000000000000000081565b6040516001600160a01b039091168152602001610120565b34801561032b57600080fd5b5061015f61033a3660046115db565b610a92565b34801561034b57600080fd5b50610354610d0d565b005b60075460009060ff16600214156103805760405163ae7c06a960e01b815260040160405180910390fd5b6007805460ff1916600217905560008061039d6005546006549091565b915091506000806103ac610dad565b909250905060006103bd8483611614565b905060006103cb8685611614565b90506000811580156103db575082155b1561040857604051638e25667f60e01b815260048101839052602481018490526044015b60405180910390fd5b6000821180156104185750600083115b156104405760405163765d141560e01b815260048101839052602481018490526044016103ff565b86158061044b575085155b156104735760405163aebe8e5360e01b815260048101889052602481018790526044016103ff565b811561055857610484828888610e53565b90508581106104b05760405163a17e11d560e01b815260048101829052602481018790526044016103ff565b60405163a9059cbb60e01b81526001600160a01b038a81166004830152602482018390527f0000000000000000000000000000000000000000000000000000000000000000169063a9059cbb90604401602060405180830381600087803b15801561051a57600080fd5b505af115801561052e573d6000803e3d6000fd5b505050506040513d601f19601f82011682018060405250810190610552919061162b565b5061062a565b610563838789610e53565b905086811061058f5760405163a17e11d560e01b815260048101829052602481018890526044016103ff565b6000808a6001600160a01b03168360405160006040518083038185875af1925050503d80600081146105dd576040519150601f19603f3d011682016040523d82523d6000602084013e6105e2565b606091505b509150915081610627578051156105fc5780518082602001fd5b60405163313f729b60e01b81526001600160a01b038c166004820152602481018490526044016103ff565b50505b610632610dad565b909550935060008261064587606461164d565b61064f9190611614565b905060008461065f87606461164d565b6106699190611614565b905060065460055461067b919061164d565b6106879061271061164d565b610691828461164d565b10156106df576106a1818361164d565b6006546005546106b1919061164d565b6106bd9061271061164d565b604051630351626d60e41b8152600481019290925260248201526044016103ff565b6106e7610d0d565b337f5cb3a6dc825435c502ed49b9136dc46736283d4d3d0e5546d2de4a935c364ac685610737576040518060400160405280600b81526020016a0a6a086be8c9ea4be8aa8960ab1b81525061075c565b6040518060400160405280600b81526020016a4554485f464f525f53504360a81b8152505b866000881161076b578661076e565b60005b8960008b1161077d5788610780565b60005b60405161079195949392919061166c565b60405180910390a250909750505050505050506007805460ff19166001179055919050565b6060600380546107c5906116a3565b80601f01602080910402602001604051908101604052809291908181526020018280546107f1906116a3565b801561083e5780601f106108135761010080835404028352916020019161083e565b820191906000526020600020905b81548152906001019060200180831161082157829003601f168201915b5050505050905090565b600033610856818585610e96565b5060019392505050565b60003361086e858285610fbb565b610879858585611035565b506001949350505050565b6000336108568185856108978383610a67565b6108a191906116d8565b610e96565b60008060006108b86005546006549091565b915091506000806108c7610dad565b915091506000806108d760025490565b905060006108e58685611614565b905060006108f38887611614565b9050826109135761090c610907828461164d565b611203565b9350610948565b61094588610921858461164d565b61092b91906116f0565b88610936868661164d565b61094091906116f0565b611273565b93505b6000841161097457604051636b7d726360e11b81526001600160a01b038b1660048201526024016103ff565b61097e8a8561128b565b610986610d0d565b604080518281526020810184905233917f25b428dfde728ccfaddad7e29e4ac23c24ed7fd1a6e3e3f91894a9a073f5dfff910160405180910390a2509198975050505050505050565b6060600480546107c5906116a3565b600033816109ec8286610a67565b905083811015610a4c5760405162461bcd60e51b815260206004820152602560248201527f45524332303a2064656372656173656420616c6c6f77616e63652062656c6f77604482015264207a65726f60d81b60648201526084016103ff565b6108798286868403610e96565b600033610856818585611035565b6001600160a01b03918216600090815260016020908152604080832093909416825291909152205490565b600754600090819060ff1660021415610abe5760405163ae7c06a960e01b815260040160405180910390fd5b6007805460ff19166002179055600080610adb6005546006549091565b915091506000610aea60025490565b905080610b0a57604051637699eb6f60e11b815260040160405180910390fd5b600081610b17858a61164d565b610b2191906116f0565b9050600082610b30858b61164d565b610b3a91906116f0565b9050811580610b47575080155b15610b6f57604051636da5bfaf60e11b815260048101839052602481018290526044016103ff565b610b79308a61136a565b60405163a9059cbb60e01b81526001600160a01b038981166004830152602482018390527f0000000000000000000000000000000000000000000000000000000000000000169063a9059cbb90604401602060405180830381600087803b158015610be357600080fd5b505af1158015610bf7573d6000803e3d6000fd5b505050506040513d601f19601f82011682018060405250810190610c1b919061162b565b50600080896001600160a01b03168460405160006040518083038185875af1925050503d8060008114610c6a576040519150601f19603f3d011682016040523d82523d6000602084013e610c6f565b606091505b509150915081610cad57805115610c895780518082602001fd5b60405163888bc56f60e01b81526001600160a01b038b1660048201526024016103ff565b610cb5610d0d565b604080518581526020810185905233917f23ff0e75edf108e3d0392d92e13e8c8a868ef19001bd49f9e94876dc46dff87f910160405180910390a250506007805460ff19166001179055909890975095505050505050565b6040516370a0823160e01b81523060048201527f00000000000000000000000000000000000000000000000000000000000000006001600160a01b0316906370a082319060240160206040518083038186803b158015610d6c57600080fd5b505afa158015610d80573d6000803e3d6000fd5b505050506040513d601f19601f82011682018060405250810190610da49190611712565b60065547600555565b6040516370a0823160e01b8152306004820152600090819047906001600160a01b037f000000000000000000000000000000000000000000000000000000000000000016906370a082319060240160206040518083038186803b158015610e1357600080fd5b505afa158015610e27573d6000803e3d6000fd5b505050506040513d601f19601f82011682018060405250810190610e4b9190611712565b915091509091565b600080610e6185606361164d565b905080610e6f85606461164d565b610e7991906116d8565b610e83848361164d565b610e8d91906116f0565b95945050505050565b6001600160a01b038316610ef85760405162461bcd60e51b8152602060048201526024808201527f45524332303a20617070726f76652066726f6d20746865207a65726f206164646044820152637265737360e01b60648201526084016103ff565b6001600160a01b038216610f595760405162461bcd60e51b815260206004820152602260248201527f45524332303a20617070726f766520746f20746865207a65726f206164647265604482015261737360f01b60648201526084016103ff565b6001600160a01b0383811660008181526001602090815260408083209487168084529482529182902085905590518481527f8c5be1e5ebec7d5bd14f71427d1e84f3dd0314c0f7b2291e5b200ac8c7c3b92591015b60405180910390a3505050565b6000610fc78484610a67565b9050600019811461102f57818110156110225760405162461bcd60e51b815260206004820152601d60248201527f45524332303a20696e73756666696369656e7420616c6c6f77616e636500000060448201526064016103ff565b61102f8484848403610e96565b50505050565b6001600160a01b0383166110995760405162461bcd60e51b815260206004820152602560248201527f45524332303a207472616e736665722066726f6d20746865207a65726f206164604482015264647265737360d81b60648201526084016103ff565b6001600160a01b0382166110fb5760405162461bcd60e51b815260206004820152602360248201527f45524332303a207472616e7366657220746f20746865207a65726f206164647260448201526265737360e81b60648201526084016103ff565b6001600160a01b038316600090815260208190526040902054818110156111735760405162461bcd60e51b815260206004820152602660248201527f45524332303a207472616e7366657220616d6f756e7420657863656564732062604482015265616c616e636560d01b60648201526084016103ff565b6001600160a01b038085166000908152602081905260408082208585039055918516815290812080548492906111aa9084906116d8565b92505081905550826001600160a01b0316846001600160a01b03167fddf252ad1be2c89b69c2b068fc378daa952ba7f163c4a11628f55a4df523b3ef846040516111f691815260200190565b60405180910390a361102f565b60006003821115611264575080600061121d6002836116f0565b6112289060016116d8565b90505b8181101561125e5790508060028161124381866116f0565b61124d91906116d8565b61125791906116f0565b905061122b565b50919050565b811561126e575060015b919050565b60008183106112825781611284565b825b9392505050565b6001600160a01b0382166112e15760405162461bcd60e51b815260206004820152601f60248201527f45524332303a206d696e7420746f20746865207a65726f20616464726573730060448201526064016103ff565b80600260008282546112f391906116d8565b90915550506001600160a01b038216600090815260208190526040812080548392906113209084906116d8565b90915550506040518181526001600160a01b038316906000907fddf252ad1be2c89b69c2b068fc378daa952ba7f163c4a11628f55a4df523b3ef9060200160405180910390a35050565b6001600160a01b0382166113ca5760405162461bcd60e51b815260206004820152602160248201527f45524332303a206275726e2066726f6d20746865207a65726f206164647265736044820152607360f81b60648201526084016103ff565b6001600160a01b0382166000908152602081905260409020548181101561143e5760405162461bcd60e51b815260206004820152602260248201527f45524332303a206275726e20616d6f756e7420657863656564732062616c616e604482015261636560f01b60648201526084016103ff565b6001600160a01b038316600090815260208190526040812083830390556002805484929061146d908490611614565b90915550506040518281526000906001600160a01b038516907fddf252ad1be2c89b69c2b068fc378daa952ba7f163c4a11628f55a4df523b3ef90602001610fae565b80356001600160a01b038116811461126e57600080fd5b6000602082840312156114d957600080fd5b611284826114b0565b6000815180845260005b81811015611508576020818501810151868301820152016114ec565b8181111561151a576000602083870101525b50601f01601f19169290920160200192915050565b60208152600061128460208301846114e2565b6000806040838503121561155557600080fd5b61155e836114b0565b946020939093013593505050565b60008060006060848603121561158157600080fd5b61158a846114b0565b9250611598602085016114b0565b9150604084013590509250925092565b600080604083850312156115bb57600080fd5b6115c4836114b0565b91506115d2602084016114b0565b90509250929050565b600080604083850312156115ee57600080fd5b823591506115d2602084016114b0565b634e487b7160e01b600052601160045260246000fd5b600082821015611626576116266115fe565b500390565b60006020828403121561163d57600080fd5b8151801515811461128457600080fd5b6000816000190483118215151615611667576116676115fe565b500290565b60a08152600061167f60a08301886114e2565b90508560208301528460408301528360608301528260808301529695505050505050565b600181811c908216806116b757607f821691505b6020821081141561125e57634e487b7160e01b600052602260045260246000fd5b600082198211156116eb576116eb6115fe565b500190565b60008261170d57634e487b7160e01b600052601260045260246000fd5b500490565b60006020828403121561172457600080fd5b505191905056fea2646970667358221220d2492380455b4455efb5c576ea92e624fc5ced20da6cdf5550c4f8593ea9b80b64736f6c63430008090033",
  "linkReferences": {},
  "deployedLinkReferences": {}
}