{
  "_format": "hh-sol-artifact-1",
  "contractName": "SpaceCoinIco",
  "sourceName": "contracts/SpaceCoinIco.sol",
  "abi": [
    {
      "inputs": [
        {
          "internalType": "address",
          "name": "_tokenAddress",
          "type": "address"
        },
        {
          "internalType": "address",
          "name": "_treasury",
          "type": "address"
        },
        {
          "internalType": "address[]",
          "name": "investors",
          "type": "address[]"
        }
      ],
      "stateMutability": "nonpayable",
      "type": "constructor"
    },
    {
      "inputs": [],
      "name": "AmountRaisedEqualZero",
      "type": "error"
    },
    {
      "inputs": [],
      "name": "InsufficientAmount",
      "type": "error"
    },
    {
      "inputs": [
        {
          "internalType": "uint8",
          "name": "",
          "type": "uint8"
        },
        {
          "internalType": "uint8",
          "name": "",
          "type": "uint8"
        }
      ],
      "name": "InvalidPhase",
      "type": "error"
    },
    {
      "inputs": [
        {
          "internalType": "string",
          "name": "",
          "type": "string"
        }
      ],
      "name": "MustBeActive",
      "type": "error"
    },
    {
      "inputs": [
        {
          "internalType": "string",
          "name": "",
          "type": "string"
        },
        {
          "internalType": "address",
          "name": "",
          "type": "address"
        }
      ],
      "name": "MustBeAllowed",
      "type": "error"
    },
    {
      "inputs": [
        {
          "internalType": "string",
          "name": "",
          "type": "string"
        }
      ],
      "name": "MustBeGreaterThanZero",
      "type": "error"
    },
    {
      "inputs": [
        {
          "internalType": "string",
          "name": "",
          "type": "string"
        }
      ],
      "name": "MustBeOwner",
      "type": "error"
    },
    {
      "inputs": [
        {
          "internalType": "string",
          "name": "",
          "type": "string"
        },
        {
          "internalType": "uint256",
          "name": "",
          "type": "uint256"
        },
        {
          "internalType": "uint256",
          "name": "",
          "type": "uint256"
        }
      ],
      "name": "MustBeUnderLimit",
      "type": "error"
    },
    {
      "inputs": [
        {
          "internalType": "string",
          "name": "",
          "type": "string"
        },
        {
          "internalType": "address",
          "name": "",
          "type": "address"
        }
      ],
      "name": "MustHaveClaimableTokens",
      "type": "error"
    },
    {
      "inputs": [
        {
          "internalType": "string",
          "name": "",
          "type": "string"
        }
      ],
      "name": "MustHaveDifferentPauseState",
      "type": "error"
    },
    {
      "inputs": [],
      "name": "NotEnoughBalance",
      "type": "error"
    },
    {
      "inputs": [
        {
          "internalType": "string",
          "name": "",
          "type": "string"
        }
      ],
      "name": "WrongPhase",
      "type": "error"
    },
    {
      "anonymous": false,
      "inputs": [
        {
          "indexed": false,
          "internalType": "address",
          "name": "",
          "type": "address"
        },
        {
          "indexed": false,
          "internalType": "uint256",
          "name": "",
          "type": "uint256"
        }
      ],
      "name": "Contribute",
      "type": "event"
    },
    {
      "anonymous": false,
      "inputs": [
        {
          "indexed": false,
          "internalType": "bool",
          "name": "",
          "type": "bool"
        }
      ],
      "name": "Paused",
      "type": "event"
    },
    {
      "anonymous": false,
      "inputs": [
        {
          "indexed": false,
          "internalType": "uint8",
          "name": "",
          "type": "uint8"
        }
      ],
      "name": "PhaseAdvanced",
      "type": "event"
    },
    {
      "anonymous": false,
      "inputs": [
        {
          "indexed": false,
          "internalType": "address",
          "name": "",
          "type": "address"
        },
        {
          "indexed": false,
          "internalType": "uint256",
          "name": "",
          "type": "uint256"
        }
      ],
      "name": "TokensClaimed",
      "type": "event"
    },
    {
      "inputs": [],
      "name": "GOAL",
      "outputs": [
        {
          "internalType": "uint256",
          "name": "",
          "type": "uint256"
        }
      ],
      "stateMutability": "view",
      "type": "function"
    },
    {
      "inputs": [],
      "name": "SEED_PHASE_GOAL",
      "outputs": [
        {
          "internalType": "uint256",
          "name": "",
          "type": "uint256"
        }
      ],
      "stateMutability": "view",
      "type": "function"
    },
    {
      "inputs": [
        {
          "internalType": "address",
          "name": "",
          "type": "address"
        }
      ],
      "name": "addressToContribution",
      "outputs": [
        {
          "internalType": "uint256",
          "name": "",
          "type": "uint256"
        }
      ],
      "stateMutability": "view",
      "type": "function"
    },
    {
      "inputs": [
        {
          "internalType": "address",
          "name": "",
          "type": "address"
        }
      ],
      "name": "addressToTokenDistribute",
      "outputs": [
        {
          "internalType": "uint256",
          "name": "",
          "type": "uint256"
        }
      ],
      "stateMutability": "view",
      "type": "function"
    },
    {
      "inputs": [],
      "name": "amountRaised",
      "outputs": [
        {
          "internalType": "uint256",
          "name": "",
          "type": "uint256"
        }
      ],
      "stateMutability": "view",
      "type": "function"
    },
    {
      "inputs": [],
      "name": "claimTokens",
      "outputs": [],
      "stateMutability": "nonpayable",
      "type": "function"
    },
    {
      "inputs": [],
      "name": "contribute",
      "outputs": [],
      "stateMutability": "payable",
      "type": "function"
    },
    {
      "inputs": [],
      "name": "currentPhase",
      "outputs": [
        {
          "internalType": "enum SpaceCoinIco.IcoPhase",
          "name": "",
          "type": "uint8"
        }
      ],
      "stateMutability": "view",
      "type": "function"
    },
    {
      "inputs": [],
      "name": "getOwner",
      "outputs": [
        {
          "internalType": "address",
          "name": "",
          "type": "address"
        }
      ],
      "stateMutability": "view",
      "type": "function"
    },
    {
      "inputs": [],
      "name": "hasReachedIcoGoal",
      "outputs": [
        {
          "internalType": "bool",
          "name": "",
          "type": "bool"
        }
      ],
      "stateMutability": "view",
      "type": "function"
    },
    {
      "inputs": [],
      "name": "paused",
      "outputs": [
        {
          "internalType": "bool",
          "name": "",
          "type": "bool"
        }
      ],
      "stateMutability": "view",
      "type": "function"
    },
    {
      "inputs": [
        {
          "internalType": "enum SpaceCoinIco.IcoPhase",
          "name": "expectedCurrent",
          "type": "uint8"
        }
      ],
      "name": "phaseAdvance",
      "outputs": [],
      "stateMutability": "nonpayable",
      "type": "function"
    },
    {
      "inputs": [
        {
          "internalType": "bool",
          "name": "newValue",
          "type": "bool"
        }
      ],
      "name": "setPaused",
      "outputs": [],
      "stateMutability": "nonpayable",
      "type": "function"
    },
    {
      "inputs": [
        {
          "internalType": "uint256",
          "name": "amount",
          "type": "uint256"
        }
      ],
      "name": "withdraw",
      "outputs": [],
      "stateMutability": "nonpayable",
      "type": "function"
    }
  ],
  "bytecode": "0x60e06040523480156200001157600080fd5b506040516200150738038062001507833981016040819052620000349162000102565b336080526001600160a01b0383811660c0526004805461ff0019169055821660a05260005b8151811015620000c5576001600360008484815181106200007e576200007e620001fc565b6020908102919091018101516001600160a01b03168252810191909152604001600020805460ff191691151591909117905580620000bc8162000212565b91505062000059565b505050506200023c565b80516001600160a01b0381168114620000e757600080fd5b919050565b634e487b7160e01b600052604160045260246000fd5b6000806000606084860312156200011857600080fd5b6200012384620000cf565b9250602062000134818601620000cf565b60408601519093506001600160401b03808211156200015257600080fd5b818701915087601f8301126200016757600080fd5b8151818111156200017c576200017c620000ec565b8060051b604051601f19603f83011681018181108582111715620001a457620001a4620000ec565b60405291825284820192508381018501918a831115620001c357600080fd5b938501935b82851015620001ec57620001dc85620000cf565b84529385019392850192620001c8565b8096505050505050509250925092565b634e487b7160e01b600052603260045260246000fd5b60006000198214156200023557634e487b7160e01b600052601160045260246000fd5b5060010190565b60805160a05160c0516112786200028f600039600081816106a701528181610d0c0152610e42015260006104c101526000818161024e015281816102e101528181610412015261077201526112786000f3fe6080604052600436106100dd5760003560e01c80637b3e5e7b1161007f578063904dda4a11610059578063904dda4a14610278578063a1bed0be14610299578063c2c82c89146102b7578063d7bb99ba146102d757600080fd5b80637b3e5e7b146101f15780637d9a50a014610207578063893d20e81461023457600080fd5b806348c54b9d116100bb57806348c54b9d1461015957806357bff87a1461016e5780635c975abb146101a95780637403cdf4146101d357600080fd5b8063055ad42e146100e257806316c38b3c146101175780632e1a7d4d14610139575b600080fd5b3480156100ee57600080fd5b5060045461010190610100900460ff1681565b60405161010e9190610f16565b60405180910390f35b34801561012357600080fd5b50610137610132366004610f4c565b6102df565b005b34801561014557600080fd5b50610137610154366004610f70565b610410565b34801561016557600080fd5b50610137610584565b34801561017a57600080fd5b5061019b610189366004610f89565b60016020526000908152604090205481565b60405190815260200161010e565b3480156101b557600080fd5b506004546101c39060ff1681565b604051901515815260200161010e565b3480156101df57600080fd5b5061019b69032d26d12e980b60000081565b3480156101fd57600080fd5b5061019b60005481565b34801561021357600080fd5b5061019b610222366004610f89565b60026020526000908152604090205481565b34801561024057600080fd5b506040516001600160a01b037f000000000000000000000000000000000000000000000000000000000000000016815260200161010e565b34801561028457600080fd5b5060005469065a4da25d3016c00000146101c3565b3480156102a557600080fd5b5061019b69065a4da25d3016c0000081565b3480156102c357600080fd5b506101376102d2366004610fb2565b610770565b610137610949565b7f00000000000000000000000000000000000000000000000000000000000000006001600160a01b0316331461033157604051635cd9bc3760e11b815260040161032890610fd3565b60405180910390fd5b60045460ff16151581151514156103c25760045460ff1661037c576040518060400160405280601281526020017149434f5f414c52454144595f41435449564560701b8152506103a8565b604051806040016040528060128152602001711250d3d7d053149150511657d4105554d15160721b8152505b6040516311c19edf60e01b81526004016103289190611043565b6004805460ff191682151590811790915560405160ff909116151581527f0e2fb031ee032dc02d8011dc50b816eb450cf856abd8261680dac74f72165bd2906020015b60405180910390a150565b7f00000000000000000000000000000000000000000000000000000000000000006001600160a01b0316331461045957604051635cd9bc3760e11b815260040161032890610fd3565b600080541161047b57604051632e3f0d1b60e01b815260040160405180910390fd5b6000811161049c57604051632ca2f52b60e11b815260040160405180910390fd5b478111156104bd5760405163569d45cf60e11b815260040160405180910390fd5b60007f00000000000000000000000000000000000000000000000000000000000000006001600160a01b03168260405160006040518083038185875af1925050503d806000811461052a576040519150601f19603f3d011682016040523d82523d6000602084013e61052f565b606091505b50509050806105805760405162461bcd60e51b815260206004820181905260248201527f4661696c656420746f2073656e64204574686572206f6e2077697468647261776044820152606401610328565b5050565b6002600454610100900460ff1660028111156105a2576105a2610f00565b146105e15760405163fcbfb2b160e01b815260206004820152600e60248201526d4e4f545f4f50454e5f504841534560901b6044820152606401610328565b3360009081526002602052604090205461063c576040805163e1c2dd0160e01b8152600481019190915260136044820152724e4f5f434c41494d41424c455f544f4b454e5360681b6064820152336024820152608401610328565b3360008181526002602090815260408083208054939055805193845290830182905290917f896e034966eaaf1adc54acc0f257056febbd300c9e47182cf761982cf1f5e430910160405180910390a160405163a9059cbb60e01b8152336004820152602481018290527f00000000000000000000000000000000000000000000000000000000000000006001600160a01b03169063a9059cbb90604401602060405180830381600087803b1580156106f357600080fd5b505af1158015610707573d6000803e3d6000fd5b505050506040513d601f19601f8201168201806040525081019061072b9190611056565b61076d5760405162461bcd60e51b815260206004820152601360248201527214d410d7d514905394d1915497d19052531151606a1b6044820152606401610328565b50565b7f00000000000000000000000000000000000000000000000000000000000000006001600160a01b031633146107b957604051635cd9bc3760e11b815260040161032890610fd3565b6002600454610100900460ff1660028111156107d7576107d7610f00565b141561081e5760405163fcbfb2b160e01b8152602060048201526015602482015274414c52454144595f494e5f4f50454e5f504841534560581b6044820152606401610328565b80600281111561083057610830610f00565b600454610100900460ff16600281111561084c5761084c610f00565b146108a557600454610100900460ff16600281111561086d5761086d610f00565b81600281111561087f5761087f610f00565b60405163098d23bb60e41b815260ff928316600482015291166024820152604401610328565b8060028111156108b7576108b7610f00565b6108c2906001611089565b60ff1660028111156108d6576108d6610f00565b6004805461ff0019166101008360028111156108f4576108f4610f00565b02179055506004547fd0e47a271d69b0e6e3f9bd81c7c695bfbcb309e6ee66a23e6ad80a8f9019057490610100900460ff16600281111561093757610937610f00565b60405160ff9091168152602001610405565b6000600454610100900460ff16600281111561096757610967610f00565b14801561098457503360009081526003602052604090205460ff16155b156109c85760408051631048818160e11b81526004810191909152600b60448201526a1393d517d0531313d5d15160aa1b6064820152336024820152608401610328565b60045460ff1615610a0c5760405163d5a08a6b60e01b815260206004820152600d60248201526c1250d3d7d254d7d4105554d151609a1b6044820152606401610328565b60003411610a4e576040516375065fb360e01b815260206004820152600e60248201526d414d4f554e545f49535f5a45524f60901b6044820152606401610328565b33600090815260016020526040812054610a699034906110ae565b9050600034600054610a7b91906110ae565b90506000600454610100900460ff166002811115610a9b57610a9b610f00565b1415610b2257610ae182685150ae84a8cdf0000060405180604001604052806014815260200173105093d59157d4115494d3d3905317d31253525560621b815250610e07565b610b228169032d26d12e980b60000060405180604001604052806014815260200173105093d59157d250d3d7d1d3d05317d31253525560621b815250610e07565b6001600454610100900460ff166002811115610b4057610b40610f00565b1415610b8657610b8682683635c9adc5dea0000060405180604001604052806014815260200173105093d59157d4115494d3d3905317d31253525560621b815250610e07565b6000600454610100900460ff166002811115610ba457610ba4610f00565b14610bea57610bea8169065a4da25d3016c0000060405180604001604052806014815260200173105093d59157d250d3d7d1d3d05317d31253525560621b815250610e07565b600034905080600080828254610c0091906110ae565b90915550503360009081526001602052604081208054839290610c249084906110ae565b9091555060009050600454610100900460ff166002811115610c4857610c48610f00565b1480610c6f57506001600454610100900460ff166002811115610c6d57610c6d610f00565b145b15610ce25733600090815260016020526040812054610c8d90610e33565b33600081815260026020908152604091829020849055815192835234908301529192507f906faaf913a60f38b5e8f2d6f5b163239bac2d994fa1a5d21751a51587a9405791015b60405180910390a150505050565b6000610ced34610e33565b60405163a9059cbb60e01b8152336004820152602481018290529091507f00000000000000000000000000000000000000000000000000000000000000006001600160a01b03169063a9059cbb90604401602060405180830381600087803b158015610d5857600080fd5b505af1158015610d6c573d6000803e3d6000fd5b505050506040513d601f19601f82011682018060405250810190610d909190611056565b610dd25760405162461bcd60e51b815260206004820152601360248201527214d410d7d514905394d1915497d19052531151606a1b6044820152606401610328565b604080513381523460208201527f906faaf913a60f38b5e8f2d6f5b163239bac2d994fa1a5d21751a51587a940579101610cd4565b81831115610e2e5780838360405163cd188a1360e01b8152600401610328939291906110c6565b505050565b6000670de0b6b3a764000060057f00000000000000000000000000000000000000000000000000000000000000006001600160a01b031663313ce5676040518163ffffffff1660e01b815260040160206040518083038186803b158015610e9957600080fd5b505afa158015610ead573d6000803e3d6000fd5b505050506040513d601f19601f82011682018060405250810190610ed191906110eb565b610edc90600a6111f2565b610ee69085611201565b610ef09190611201565b610efa9190611220565b92915050565b634e487b7160e01b600052602160045260246000fd5b6020810160038310610f3857634e487b7160e01b600052602160045260246000fd5b91905290565b801515811461076d57600080fd5b600060208284031215610f5e57600080fd5b8135610f6981610f3e565b9392505050565b600060208284031215610f8257600080fd5b5035919050565b600060208284031215610f9b57600080fd5b81356001600160a01b0381168114610f6957600080fd5b600060208284031215610fc457600080fd5b813560038110610f6957600080fd5b6020808252600990820152682727aa2fa7aba722a960b91b604082015260600190565b6000815180845260005b8181101561101c57602081850181015186830182015201611000565b8181111561102e576000602083870101525b50601f01601f19169290920160200192915050565b602081526000610f696020830184610ff6565b60006020828403121561106857600080fd5b8151610f6981610f3e565b634e487b7160e01b600052601160045260246000fd5b600060ff821660ff84168060ff038211156110a6576110a6611073565b019392505050565b600082198211156110c1576110c1611073565b500190565b6060815260006110d96060830186610ff6565b60208301949094525060400152919050565b6000602082840312156110fd57600080fd5b815160ff81168114610f6957600080fd5b600181815b8085111561114957816000190482111561112f5761112f611073565b8085161561113c57918102915b93841c9390800290611113565b509250929050565b60008261116057506001610efa565b8161116d57506000610efa565b8160018114611183576002811461118d576111a9565b6001915050610efa565b60ff84111561119e5761119e611073565b50506001821b610efa565b5060208310610133831016604e8410600b84101617156111cc575081810a610efa565b6111d6838361110e565b80600019048211156111ea576111ea611073565b029392505050565b6000610f6960ff841683611151565b600081600019048311821515161561121b5761121b611073565b500290565b60008261123d57634e487b7160e01b600052601260045260246000fd5b50049056fea264697066735822122056683736307e90e3d6dbee201d9c0f519dbd228dd7358a68b04e1c9f175993e764736f6c63430008090033",
  "linkReferences": {},
  "deployedLinkReferences": {}
}