{
  "_format": "hh-sol-artifact-1",
  "contractName": "SpaceCoin",
  "sourceName": "contracts/SpaceCoin.sol",
  "abi": [
    {
      "inputs": [
        {
          "internalType": "address",
          "name": "_treasuryWallet",
          "type": "address"
        }
      ],
      "stateMutability": "nonpayable",
      "type": "constructor"
    },
    {
      "inputs": [
        {
          "internalType": "string",
          "name": "",
          "type": "string"
        }
      ],
      "name": "MustBeOwner",
      "type": "error"
    },
    {
      "anonymous": false,
      "inputs": [
        {
          "indexed": true,
          "internalType": "address",
          "name": "owner",
          "type": "address"
        },
        {
          "indexed": true,
          "internalType": "address",
          "name": "spender",
          "type": "address"
        },
        {
          "indexed": false,
          "internalType": "uint256",
          "name": "value",
          "type": "uint256"
        }
      ],
      "name": "Approval",
      "type": "event"
    },
    {
      "anonymous": false,
      "inputs": [
        {
          "indexed": true,
          "internalType": "address",
          "name": "from",
          "type": "address"
        },
        {
          "indexed": true,
          "internalType": "address",
          "name": "to",
          "type": "address"
        },
        {
          "indexed": false,
          "internalType": "uint256",
          "name": "value",
          "type": "uint256"
        }
      ],
      "name": "Transfer",
      "type": "event"
    },
    {
      "inputs": [],
      "name": "ICO_SUPPLY",
      "outputs": [
        {
          "internalType": "uint256",
          "name": "",
          "type": "uint256"
        }
      ],
      "stateMutability": "view",
      "type": "function"
    },
    {
      "inputs": [
        {
          "internalType": "address",
          "name": "owner",
          "type": "address"
        },
        {
          "internalType": "address",
          "name": "spender",
          "type": "address"
        }
      ],
      "name": "allowance",
      "outputs": [
        {
          "internalType": "uint256",
          "name": "",
          "type": "uint256"
        }
      ],
      "stateMutability": "view",
      "type": "function"
    },
    {
      "inputs": [
        {
          "internalType": "address",
          "name": "spender",
          "type": "address"
        },
        {
          "internalType": "uint256",
          "name": "amount",
          "type": "uint256"
        }
      ],
      "name": "approve",
      "outputs": [
        {
          "internalType": "bool",
          "name": "",
          "type": "bool"
        }
      ],
      "stateMutability": "nonpayable",
      "type": "function"
    },
    {
      "inputs": [
        {
          "internalType": "address",
          "name": "account",
          "type": "address"
        }
      ],
      "name": "balanceOf",
      "outputs": [
        {
          "internalType": "uint256",
          "name": "",
          "type": "uint256"
        }
      ],
      "stateMutability": "view",
      "type": "function"
    },
    {
      "inputs": [],
      "name": "decimals",
      "outputs": [
        {
          "internalType": "uint8",
          "name": "",
          "type": "uint8"
        }
      ],
      "stateMutability": "view",
      "type": "function"
    },
    {
      "inputs": [
        {
          "internalType": "address",
          "name": "spender",
          "type": "address"
        },
        {
          "internalType": "uint256",
          "name": "subtractedValue",
          "type": "uint256"
        }
      ],
      "name": "decreaseAllowance",
      "outputs": [
        {
          "internalType": "bool",
          "name": "",
          "type": "bool"
        }
      ],
      "stateMutability": "nonpayable",
      "type": "function"
    },
    {
      "inputs": [
        {
          "internalType": "address",
          "name": "spender",
          "type": "address"
        },
        {
          "internalType": "uint256",
          "name": "addedValue",
          "type": "uint256"
        }
      ],
      "name": "increaseAllowance",
      "outputs": [
        {
          "internalType": "bool",
          "name": "",
          "type": "bool"
        }
      ],
      "stateMutability": "nonpayable",
      "type": "function"
    },
    {
      "inputs": [],
      "name": "isTaxActive",
      "outputs": [
        {
          "internalType": "bool",
          "name": "",
          "type": "bool"
        }
      ],
      "stateMutability": "view",
      "type": "function"
    },
    {
      "inputs": [],
      "name": "name",
      "outputs": [
        {
          "internalType": "string",
          "name": "",
          "type": "string"
        }
      ],
      "stateMutability": "view",
      "type": "function"
    },
    {
      "inputs": [],
      "name": "symbol",
      "outputs": [
        {
          "internalType": "string",
          "name": "",
          "type": "string"
        }
      ],
      "stateMutability": "view",
      "type": "function"
    },
    {
      "inputs": [],
      "name": "toggleTax",
      "outputs": [],
      "stateMutability": "nonpayable",
      "type": "function"
    },
    {
      "inputs": [],
      "name": "totalSupply",
      "outputs": [
        {
          "internalType": "uint256",
          "name": "",
          "type": "uint256"
        }
      ],
      "stateMutability": "view",
      "type": "function"
    },
    {
      "inputs": [
        {
          "internalType": "address",
          "name": "to",
          "type": "address"
        },
        {
          "internalType": "uint256",
          "name": "amount",
          "type": "uint256"
        }
      ],
      "name": "transfer",
      "outputs": [
        {
          "internalType": "bool",
          "name": "",
          "type": "bool"
        }
      ],
      "stateMutability": "nonpayable",
      "type": "function"
    },
    {
      "inputs": [
        {
          "internalType": "address",
          "name": "from",
          "type": "address"
        },
        {
          "internalType": "address",
          "name": "to",
          "type": "address"
        },
        {
          "internalType": "uint256",
          "name": "amount",
          "type": "uint256"
        }
      ],
      "name": "transferFrom",
      "outputs": [
        {
          "internalType": "bool",
          "name": "",
          "type": "bool"
        }
      ],
      "stateMutability": "nonpayable",
      "type": "function"
    },
    {
      "inputs": [],
      "name": "treasuryWallet",
      "outputs": [
        {
          "internalType": "address payable",
          "name": "",
          "type": "address"
        }
      ],
      "stateMutability": "view",
      "type": "function"
    }
  ],
  "bytecode": "0x60a06040523480156200001157600080fd5b5060405162000f7f38038062000f7f833981016040819052620000349162000309565b6040518060400160405280600981526020016829b830b1b2a1b7b4b760b91b8152506040518060400160405280600381526020016253504360e81b81525081600390805190602001906200008a92919062000263565b508051620000a090600490602084019062000263565b5050506001600160a01b038116620000f15760405162461bcd60e51b815260206004820152600f60248201526e496e76616c6964206164647265737360881b60448201526064015b60405180910390fd5b33608052600580546001600160a01b0319166001600160a01b038316908117909155620001559062000121601290565b620001319060ff16600a62000450565b62000143620249f06207a1206200045e565b6200014f919062000478565b6200017e565b6200017733620001686012600a62000450565b6200014f90620249f062000478565b50620004f2565b6001600160a01b038216620001d65760405162461bcd60e51b815260206004820152601f60248201527f45524332303a206d696e7420746f20746865207a65726f2061646472657373006044820152606401620000e8565b8060026000828254620001ea91906200049a565b90915550506001600160a01b03821660009081526020819052604081208054839290620002199084906200049a565b90915550506040518181526001600160a01b038316906000907fddf252ad1be2c89b69c2b068fc378daa952ba7f163c4a11628f55a4df523b3ef9060200160405180910390a35050565b8280546200027190620004b5565b90600052602060002090601f016020900481019282620002955760008555620002e0565b82601f10620002b057805160ff1916838001178555620002e0565b82800160010185558215620002e0579182015b82811115620002e0578251825591602001919060010190620002c3565b50620002ee929150620002f2565b5090565b5b80821115620002ee5760008155600101620002f3565b6000602082840312156200031c57600080fd5b81516001600160a01b03811681146200033457600080fd5b9392505050565b634e487b7160e01b600052601160045260246000fd5b600181815b80851115620003925781600019048211156200037657620003766200033b565b808516156200038457918102915b93841c939080029062000356565b509250929050565b600082620003ab575060016200044a565b81620003ba575060006200044a565b8160018114620003d35760028114620003de57620003fe565b60019150506200044a565b60ff841115620003f257620003f26200033b565b50506001821b6200044a565b5060208310610133831016604e8410600b841016171562000423575081810a6200044a565b6200042f838362000351565b80600019048211156200044657620004466200033b565b0290505b92915050565b60006200033483836200039a565b6000828210156200047357620004736200033b565b500390565b60008160001904831182151516156200049557620004956200033b565b500290565b60008219821115620004b057620004b06200033b565b500190565b600181811c90821680620004ca57607f821691505b60208210811415620004ec57634e487b7160e01b600052602260045260246000fd5b50919050565b608051610a716200050e60003960006102eb0152610a716000f3fe608060405234801561001057600080fd5b50600436106100f55760003560e01c8063395093511161009757806398a0dd091161006657806398a0dd09146101f2578063a457c2d714610206578063a9059cbb14610219578063dd62ed3e1461022c57600080fd5b806339509351146101835780634626402b1461019657806370a08231146101c157806395d89b41146101ea57600080fd5b806310bf6029116100d357806310bf60291461014f57806318160ddd1461015957806323b872dd14610161578063313ce5671461017457600080fd5b806304269bc2146100fa57806306fdde0314610117578063095ea7b31461012c575b600080fd5b610104620249f081565b6040519081526020015b60405180910390f35b61011f61023f565b60405161010e919061084e565b61013f61013a3660046108bf565b6102d1565b604051901515815260200161010e565b6101576102e9565b005b600254610104565b61013f61016f3660046108e9565b610374565b6040516012815260200161010e565b61013f6101913660046108bf565b610398565b6005546101a9906001600160a01b031681565b6040516001600160a01b03909116815260200161010e565b6101046101cf366004610925565b6001600160a01b031660009081526020819052604090205490565b61011f6103ba565b60055461013f90600160a01b900460ff1681565b61013f6102143660046108bf565b6103c9565b61013f6102273660046108bf565b610444565b61010461023a366004610947565b610452565b60606003805461024e9061097a565b80601f016020809104026020016040519081016040528092919081815260200182805461027a9061097a565b80156102c75780601f1061029c576101008083540402835291602001916102c7565b820191906000526020600020905b8154815290600101906020018083116102aa57829003601f168201915b5050505050905090565b6000336102df81858561047d565b5060019392505050565b7f00000000000000000000000000000000000000000000000000000000000000006001600160a01b0316331461035357604051635cd9bc3760e11b81526020600482015260096024820152682727aa2fa7aba722a960b91b60448201526064015b60405180910390fd5b6005805460ff60a01b198116600160a01b9182900460ff1615909102179055565b6000336103828582856105a1565b61038d85858561061b565b506001949350505050565b6000336102df8185856103ab8383610452565b6103b591906109cb565b61047d565b60606004805461024e9061097a565b600033816103d78286610452565b9050838110156104375760405162461bcd60e51b815260206004820152602560248201527f45524332303a2064656372656173656420616c6c6f77616e63652062656c6f77604482015264207a65726f60d81b606482015260840161034a565b61038d828686840361047d565b6000336102df81858561061b565b6001600160a01b03918216600090815260016020908152604080832093909416825291909152205490565b6001600160a01b0383166104df5760405162461bcd60e51b8152602060048201526024808201527f45524332303a20617070726f76652066726f6d20746865207a65726f206164646044820152637265737360e01b606482015260840161034a565b6001600160a01b0382166105405760405162461bcd60e51b815260206004820152602260248201527f45524332303a20617070726f766520746f20746865207a65726f206164647265604482015261737360f01b606482015260840161034a565b6001600160a01b0383811660008181526001602090815260408083209487168084529482529182902085905590518481527f8c5be1e5ebec7d5bd14f71427d1e84f3dd0314c0f7b2291e5b200ac8c7c3b925910160405180910390a3505050565b60006105ad8484610452565b9050600019811461061557818110156106085760405162461bcd60e51b815260206004820152601d60248201527f45524332303a20696e73756666696369656e7420616c6c6f77616e6365000000604482015260640161034a565b610615848484840361047d565b50505050565b600554600160a01b900460ff161561067057600061271061063d8360c86109e3565b6106479190610a02565b90506106538183610a24565b60055490925061066e9085906001600160a01b031683610680565b505b61067b838383610680565b505050565b6001600160a01b0383166106e45760405162461bcd60e51b815260206004820152602560248201527f45524332303a207472616e736665722066726f6d20746865207a65726f206164604482015264647265737360d81b606482015260840161034a565b6001600160a01b0382166107465760405162461bcd60e51b815260206004820152602360248201527f45524332303a207472616e7366657220746f20746865207a65726f206164647260448201526265737360e81b606482015260840161034a565b6001600160a01b038316600090815260208190526040902054818110156107be5760405162461bcd60e51b815260206004820152602660248201527f45524332303a207472616e7366657220616d6f756e7420657863656564732062604482015265616c616e636560d01b606482015260840161034a565b6001600160a01b038085166000908152602081905260408082208585039055918516815290812080548492906107f59084906109cb565b92505081905550826001600160a01b0316846001600160a01b03167fddf252ad1be2c89b69c2b068fc378daa952ba7f163c4a11628f55a4df523b3ef8460405161084191815260200190565b60405180910390a3610615565b600060208083528351808285015260005b8181101561087b5785810183015185820160400152820161085f565b8181111561088d576000604083870101525b50601f01601f1916929092016040019392505050565b80356001600160a01b03811681146108ba57600080fd5b919050565b600080604083850312156108d257600080fd5b6108db836108a3565b946020939093013593505050565b6000806000606084860312156108fe57600080fd5b610907846108a3565b9250610915602085016108a3565b9150604084013590509250925092565b60006020828403121561093757600080fd5b610940826108a3565b9392505050565b6000806040838503121561095a57600080fd5b610963836108a3565b9150610971602084016108a3565b90509250929050565b600181811c9082168061098e57607f821691505b602082108114156109af57634e487b7160e01b600052602260045260246000fd5b50919050565b634e487b7160e01b600052601160045260246000fd5b600082198211156109de576109de6109b5565b500190565b60008160001904831182151516156109fd576109fd6109b5565b500290565b600082610a1f57634e487b7160e01b600052601260045260246000fd5b500490565b600082821015610a3657610a366109b5565b50039056fea264697066735822122036975c9f0057340c28f9854efaac43740d6feb450af73fb15484b96c8b31cfdf64736f6c63430008090033",
  "linkReferences": {},
  "deployedLinkReferences": {}
}