{
  "_format": "hh-sol-artifact-1",
  "contractName": "SpaceRouter",
  "sourceName": "contracts/SpaceRouter.sol",
  "abi": [
    {
      "inputs": [
        {
          "internalType": "address",
          "name": "_liquidityPool",
          "type": "address"
        },
        {
          "internalType": "address",
          "name": "_spaceCoin",
          "type": "address"
        }
      ],
      "stateMutability": "nonpayable",
      "type": "constructor"
    },
    {
      "inputs": [
        {
          "internalType": "uint256",
          "name": "",
          "type": "uint256"
        },
        {
          "internalType": "uint256",
          "name": "",
          "type": "uint256"
        }
      ],
      "name": "EthAmounLowerThanMin",
      "type": "error"
    },
    {
      "inputs": [],
      "name": "InputAmountInvalid",
      "type": "error"
    },
    {
      "inputs": [
        {
          "internalType": "uint256",
          "name": "",
          "type": "uint256"
        },
        {
          "internalType": "uint256",
          "name": "",
          "type": "uint256"
        },
        {
          "internalType": "uint256",
          "name": "",
          "type": "uint256"
        },
        {
          "internalType": "uint256",
          "name": "",
          "type": "uint256"
        }
      ],
      "name": "InsufficientAmount",
      "type": "error"
    },
    {
      "inputs": [
        {
          "internalType": "uint256",
          "name": "",
          "type": "uint256"
        },
        {
          "internalType": "uint256",
          "name": "",
          "type": "uint256"
        }
      ],
      "name": "InsufficientETHAmount",
      "type": "error"
    },
    {
      "inputs": [
        {
          "internalType": "uint256",
          "name": "",
          "type": "uint256"
        },
        {
          "internalType": "uint256",
          "name": "",
          "type": "uint256"
        }
      ],
      "name": "InsufficientSPCAmount",
      "type": "error"
    },
    {
      "inputs": [
        {
          "internalType": "uint256",
          "name": "",
          "type": "uint256"
        },
        {
          "internalType": "uint256",
          "name": "",
          "type": "uint256"
        }
      ],
      "name": "ReservesAmountInvalid",
      "type": "error"
    },
    {
      "inputs": [
        {
          "internalType": "uint256",
          "name": "",
          "type": "uint256"
        },
        {
          "internalType": "uint256",
          "name": "",
          "type": "uint256"
        }
      ],
      "name": "SpcAmounLowerThanMin",
      "type": "error"
    },
    {
      "inputs": [
        {
          "internalType": "uint256",
          "name": "",
          "type": "uint256"
        },
        {
          "internalType": "uint256",
          "name": "",
          "type": "uint256"
        }
      ],
      "name": "WrongEthAmount",
      "type": "error"
    },
    {
      "inputs": [
        {
          "internalType": "uint256",
          "name": "",
          "type": "uint256"
        },
        {
          "internalType": "uint256",
          "name": "",
          "type": "uint256"
        }
      ],
      "name": "WrongSpcAmount",
      "type": "error"
    },
    {
      "inputs": [
        {
          "internalType": "uint256",
          "name": "amountA",
          "type": "uint256"
        },
        {
          "internalType": "uint256",
          "name": "reserveA",
          "type": "uint256"
        },
        {
          "internalType": "uint256",
          "name": "reserveB",
          "type": "uint256"
        }
      ],
      "name": "calcOptimalAmount",
      "outputs": [
        {
          "internalType": "uint256",
          "name": "",
          "type": "uint256"
        }
      ],
      "stateMutability": "pure",
      "type": "function"
    },
    {
      "inputs": [
        {
          "internalType": "uint256",
          "name": "spcAmount",
          "type": "uint256"
        }
      ],
      "name": "deposit",
      "outputs": [
        {
          "internalType": "uint256",
          "name": "",
          "type": "uint256"
        },
        {
          "internalType": "uint256",
          "name": "",
          "type": "uint256"
        },
        {
          "internalType": "uint256",
          "name": "",
          "type": "uint256"
        }
      ],
      "stateMutability": "payable",
      "type": "function"
    },
    {
      "inputs": [
        {
          "internalType": "uint256",
          "name": "amountIn",
          "type": "uint256"
        },
        {
          "internalType": "uint256",
          "name": "reserveIn",
          "type": "uint256"
        },
        {
          "internalType": "uint256",
          "name": "reserveOut",
          "type": "uint256"
        }
      ],
      "name": "getAmountReceived",
      "outputs": [
        {
          "internalType": "uint256",
          "name": "",
          "type": "uint256"
        }
      ],
      "stateMutability": "pure",
      "type": "function"
    },
    {
      "inputs": [
        {
          "internalType": "uint256",
          "name": "minSpcOut",
          "type": "uint256"
        }
      ],
      "name": "swapEthForSpc",
      "outputs": [
        {
          "internalType": "uint256",
          "name": "",
          "type": "uint256"
        },
        {
          "internalType": "uint256",
          "name": "",
          "type": "uint256"
        }
      ],
      "stateMutability": "payable",
      "type": "function"
    },
    {
      "inputs": [
        {
          "internalType": "uint256",
          "name": "amountIn",
          "type": "uint256"
        },
        {
          "internalType": "uint256",
          "name": "minEthOut",
          "type": "uint256"
        }
      ],
      "name": "swapSpcForEth",
      "outputs": [
        {
          "internalType": "uint256",
          "name": "",
          "type": "uint256"
        },
        {
          "internalType": "uint256",
          "name": "",
          "type": "uint256"
        }
      ],
      "stateMutability": "nonpayable",
      "type": "function"
    },
    {
      "inputs": [
        {
          "internalType": "uint256",
          "name": "liquidity",
          "type": "uint256"
        }
      ],
      "name": "withdraw",
      "outputs": [
        {
          "internalType": "uint256",
          "name": "",
          "type": "uint256"
        },
        {
          "internalType": "uint256",
          "name": "",
          "type": "uint256"
        }
      ],
      "stateMutability": "nonpayable",
      "type": "function"
    }
  ],
  "bytecode": "0x60e060405234801561001057600080fd5b50604051610a16380380610a1683398101604081905261002f91610066565b336080526001600160a01b0391821660a0521660c052610099565b80516001600160a01b038116811461006157600080fd5b919050565b6000806040838503121561007957600080fd5b6100828361004a565b91506100906020840161004a565b90509250929050565b60805160a05160c0516109206100f6600039600081816104df015261065d0152600081816101680152818161023f015281816102f8015281816104a50152818161057e0152818161062701526106f30152600050506109206000f3fe6080604052600436106100555760003560e01c806303df8bb01461005a5780632e1a7d4d146100875780636d5f8343146100a75780637ae1bd47146100d5578063b6b55f25146100f5578063fa0705be14610123575b600080fd5b61006d6100683660046107ae565b610143565b604080519283526020830191909152015b60405180910390f35b34801561009357600080fd5b5061006d6100a23660046107ae565b610222565b3480156100b357600080fd5b506100c76100c23660046107c7565b61037f565b60405190815260200161007e565b3480156100e157600080fd5b506100c76100f03660046107c7565b6103f1565b6101086101033660046107ae565b610488565b6040805193845260208401929092529082015260600161007e565b34801561012f57600080fd5b5061006d61013e3660046107f3565b61060a565b604051623438dd60e41b81523360048201526000908190349082906001600160a01b037f000000000000000000000000000000000000000000000000000000000000000016906303438dd09084906024016020604051808303818588803b1580156101ad57600080fd5b505af11580156101c1573d6000803e3d6000fd5b50505050506040513d601f19601f820116820180604052508101906101e69190610815565b90508481101561021857604051637f69999360e11b815260048101829052602481018690526044015b60405180910390fd5b9094909350915050565b6040516323b872dd60e01b81523360048201526001600160a01b037f00000000000000000000000000000000000000000000000000000000000000001660248201819052604482018390526000918291906323b872dd90606401602060405180830381600087803b15801561029657600080fd5b505af11580156102aa573d6000803e3d6000fd5b505050506040513d601f19601f820116820180604052508101906102ce919061082e565b50604051633f34d4cf60e21b81526004810184905233602482015260009081906001600160a01b037f0000000000000000000000000000000000000000000000000000000000000000169063fcd3533c906044016040805180830381600087803b15801561033b57600080fd5b505af115801561034f573d6000803e3d6000fd5b505050506040513d601f19601f820116820180604052508101906103739190610857565b90969095509350505050565b60008084116103a15760405163a74244a160e01b815260040160405180910390fd5b8215806103ac575081155b156103d45760405163aebe8e5360e01b8152600481018490526024810183905260440161020f565b826103df8386610891565b6103e991906108b0565b949350505050565b60008084116104135760405163a74244a160e01b815260040160405180910390fd5b82158061041e575081155b156104465760405163aebe8e5360e01b8152600481018490526024810183905260440161020f565b6000610453856063610891565b905080610461856064610891565b61046b91906108d2565b6104758483610891565b61047f91906108b0565b95945050505050565b6040516323b872dd60e01b81523360048201526001600160a01b037f0000000000000000000000000000000000000000000000000000000000000000811660248301526044820183905260009182918291349186917f0000000000000000000000000000000000000000000000000000000000000000909116906323b872dd90606401602060405180830381600087803b15801561052557600080fd5b505af1158015610539573d6000803e3d6000fd5b505050506040513d601f19601f8201168201806040525081019061055d919061082e565b506040516335313c2160e11b81523360048201526000906001600160a01b037f00000000000000000000000000000000000000000000000000000000000000001690636a6278429085906024016020604051808303818588803b1580156105c357600080fd5b505af11580156105d7573d6000803e3d6000fd5b50505050506040513d601f19601f820116820180604052508101906105fc9190610815565b929791965091945092505050565b6040516323b872dd60e01b81523360048201526001600160a01b037f00000000000000000000000000000000000000000000000000000000000000008116602483015260448201849052600091829185917f0000000000000000000000000000000000000000000000000000000000000000909116906323b872dd90606401602060405180830381600087803b1580156106a357600080fd5b505af11580156106b7573d6000803e3d6000fd5b505050506040513d601f19601f820116820180604052508101906106db919061082e565b50604051623438dd60e41b81523360048201526000907f00000000000000000000000000000000000000000000000000000000000000006001600160a01b0316906303438dd090602401602060405180830381600087803b15801561073f57600080fd5b505af1158015610753573d6000803e3d6000fd5b505050506040513d601f19601f820116820180604052508101906107779190610815565b9050848110156107a457604051636c95dafd60e11b8152600481018290526024810186905260440161020f565b9590945092505050565b6000602082840312156107c057600080fd5b5035919050565b6000806000606084860312156107dc57600080fd5b505081359360208301359350604090920135919050565b6000806040838503121561080657600080fd5b50508035926020909101359150565b60006020828403121561082757600080fd5b5051919050565b60006020828403121561084057600080fd5b8151801515811461085057600080fd5b9392505050565b6000806040838503121561086a57600080fd5b505080516020909101519092909150565b634e487b7160e01b600052601160045260246000fd5b60008160001904831182151516156108ab576108ab61087b565b500290565b6000826108cd57634e487b7160e01b600052601260045260246000fd5b500490565b600082198211156108e5576108e561087b565b50019056fea2646970667358221220cfd809b320d6e0ff8a3858e1c5e5e0e1644a8256e676151ee569cc0142d0bc0264736f6c63430008090033",
  "linkReferences": {},
  "deployedLinkReferences": {}
}