{
  "_format": "hh-sol-artifact-1",
  "contractName": "SpaceCoinIco",
  "sourceName": "contracts/SpaceCoinIco.sol",
  "abi": [
    {
      "inputs": [
        {
          "internalType": "address",
          "name": "_tokenAddress",
          "type": "address"
        },
        {
          "internalType": "address[]",
          "name": "investors",
          "type": "address[]"
        }
      ],
      "stateMutability": "nonpayable",
      "type": "constructor"
    },
    {
      "inputs": [
        {
          "internalType": "string",
          "name": "",
          "type": "string"
        }
      ],
      "name": "MustBeActive",
      "type": "error"
    },
    {
      "inputs": [
        {
          "internalType": "string",
          "name": "",
          "type": "string"
        },
        {
          "internalType": "address",
          "name": "",
          "type": "address"
        }
      ],
      "name": "MustBeAllowed",
      "type": "error"
    },
    {
      "inputs": [
        {
          "internalType": "string",
          "name": "",
          "type": "string"
        }
      ],
      "name": "MustBeGreaterThanZero",
      "type": "error"
    },
    {
      "inputs": [
        {
          "internalType": "string",
          "name": "",
          "type": "string"
        }
      ],
      "name": "MustBeOwner",
      "type": "error"
    },
    {
      "inputs": [
        {
          "internalType": "string",
          "name": "",
          "type": "string"
        },
        {
          "internalType": "uint256",
          "name": "",
          "type": "uint256"
        },
        {
          "internalType": "uint256",
          "name": "",
          "type": "uint256"
        }
      ],
      "name": "MustBeUnderLimit",
      "type": "error"
    },
    {
      "inputs": [
        {
          "internalType": "string",
          "name": "",
          "type": "string"
        },
        {
          "internalType": "address",
          "name": "",
          "type": "address"
        }
      ],
      "name": "MustHaveClaimableTokens",
      "type": "error"
    },
    {
      "inputs": [
        {
          "internalType": "string",
          "name": "",
          "type": "string"
        }
      ],
      "name": "MustHaveDifferentPauseState",
      "type": "error"
    },
    {
      "inputs": [
        {
          "internalType": "string",
          "name": "",
          "type": "string"
        }
      ],
      "name": "WrongPhase",
      "type": "error"
    },
    {
      "anonymous": false,
      "inputs": [
        {
          "indexed": false,
          "internalType": "address",
          "name": "",
          "type": "address"
        },
        {
          "indexed": false,
          "internalType": "uint256",
          "name": "",
          "type": "uint256"
        }
      ],
      "name": "Contribute",
      "type": "event"
    },
    {
      "anonymous": false,
      "inputs": [
        {
          "indexed": false,
          "internalType": "bool",
          "name": "",
          "type": "bool"
        }
      ],
      "name": "Paused",
      "type": "event"
    },
    {
      "anonymous": false,
      "inputs": [
        {
          "indexed": false,
          "internalType": "enum SpaceCoinIco.IcoPhase",
          "name": "",
          "type": "uint8"
        }
      ],
      "name": "PhaseAdvanced",
      "type": "event"
    },
    {
      "anonymous": false,
      "inputs": [
        {
          "indexed": false,
          "internalType": "address",
          "name": "",
          "type": "address"
        },
        {
          "indexed": false,
          "internalType": "uint256",
          "name": "",
          "type": "uint256"
        }
      ],
      "name": "TokensClaimed",
      "type": "event"
    },
    {
      "inputs": [],
      "name": "GOAL",
      "outputs": [
        {
          "internalType": "uint256",
          "name": "",
          "type": "uint256"
        }
      ],
      "stateMutability": "view",
      "type": "function"
    },
    {
      "inputs": [],
      "name": "SEED_PHASE_GOAL",
      "outputs": [
        {
          "internalType": "uint256",
          "name": "",
          "type": "uint256"
        }
      ],
      "stateMutability": "view",
      "type": "function"
    },
    {
      "inputs": [
        {
          "internalType": "address",
          "name": "",
          "type": "address"
        }
      ],
      "name": "addressToContribution",
      "outputs": [
        {
          "internalType": "uint256",
          "name": "",
          "type": "uint256"
        }
      ],
      "stateMutability": "view",
      "type": "function"
    },
    {
      "inputs": [
        {
          "internalType": "address",
          "name": "",
          "type": "address"
        }
      ],
      "name": "addressToTokenDistribute",
      "outputs": [
        {
          "internalType": "uint256",
          "name": "",
          "type": "uint256"
        }
      ],
      "stateMutability": "view",
      "type": "function"
    },
    {
      "inputs": [],
      "name": "amountRaised",
      "outputs": [
        {
          "internalType": "uint256",
          "name": "",
          "type": "uint256"
        }
      ],
      "stateMutability": "view",
      "type": "function"
    },
    {
      "inputs": [],
      "name": "claimTokens",
      "outputs": [],
      "stateMutability": "nonpayable",
      "type": "function"
    },
    {
      "inputs": [],
      "name": "contribute",
      "outputs": [],
      "stateMutability": "payable",
      "type": "function"
    },
    {
      "inputs": [],
      "name": "currentPhase",
      "outputs": [
        {
          "internalType": "enum SpaceCoinIco.IcoPhase",
          "name": "",
          "type": "uint8"
        }
      ],
      "stateMutability": "view",
      "type": "function"
    },
    {
      "inputs": [],
      "name": "hasReachedIcoGoal",
      "outputs": [
        {
          "internalType": "bool",
          "name": "",
          "type": "bool"
        }
      ],
      "stateMutability": "view",
      "type": "function"
    },
    {
      "inputs": [],
      "name": "paused",
      "outputs": [
        {
          "internalType": "bool",
          "name": "",
          "type": "bool"
        }
      ],
      "stateMutability": "view",
      "type": "function"
    },
    {
      "inputs": [],
      "name": "phaseAdvance",
      "outputs": [],
      "stateMutability": "nonpayable",
      "type": "function"
    },
    {
      "inputs": [
        {
          "internalType": "bool",
          "name": "newValue",
          "type": "bool"
        }
      ],
      "name": "setPaused",
      "outputs": [],
      "stateMutability": "nonpayable",
      "type": "function"
    }
  ],
  "bytecode": "0x60a06040523480156200001157600080fd5b50604051620011b5380380620011b583398101604081905262000034916200010a565b3360805260048054610100600160b01b0319166101006001600160a01b0385160260ff60a81b191617905560005b8151811015620000ce57600160036000848481518110620000875762000087620001f3565b6020908102919091018101516001600160a01b03168252810191909152604001600020805460ff191691151591909117905580620000c58162000209565b91505062000062565b50505062000233565b80516001600160a01b0381168114620000ef57600080fd5b919050565b634e487b7160e01b600052604160045260246000fd5b600080604083850312156200011e57600080fd5b6200012983620000d7565b602084810151919350906001600160401b03808211156200014957600080fd5b818601915086601f8301126200015e57600080fd5b815181811115620001735762000173620000f4565b8060051b604051601f19603f830116810181811085821117156200019b576200019b620000f4565b604052918252848201925083810185019189831115620001ba57600080fd5b938501935b82851015620001e357620001d385620000d7565b84529385019392850192620001bf565b8096505050505050509250929050565b634e487b7160e01b600052603260045260246000fd5b60006000198214156200022c57634e487b7160e01b600052601160045260246000fd5b5060010190565b608051610f5f620002566000396000818161023e01526103860152610f5f6000f3fe6080604052600436106100a75760003560e01c80637403cdf4116100645780637403cdf4146101945780637b3e5e7b146101b25780637d9a50a0146101c8578063904dda4a146101f5578063a1bed0be14610216578063d7bb99ba1461023457600080fd5b8063055ad42e146100ac57806316c38b3c146100e3578063353b23341461010557806348c54b9d1461011a57806357bff87a1461012f5780635c975abb1461016a575b600080fd5b3480156100b857600080fd5b506004546100cd90600160a81b900460ff1681565b6040516100da9190610c7f565b60405180910390f35b3480156100ef57600080fd5b506101036100fe366004610cb5565b61023c565b005b34801561011157600080fd5b50610103610384565b34801561012657600080fd5b506101036104ee565b34801561013b57600080fd5b5061015c61014a366004610cd9565b60016020526000908152604090205481565b6040519081526020016100da565b34801561017657600080fd5b506004546101849060ff1681565b60405190151581526020016100da565b3480156101a057600080fd5b5061015c69032d26d12e980b60000081565b3480156101be57600080fd5b5061015c60005481565b3480156101d457600080fd5b5061015c6101e3366004610cd9565b60026020526000908152604090205481565b34801561020157600080fd5b5060005469065a4da25d3016c0000014610184565b34801561022257600080fd5b5061015c69065a4da25d3016c0000081565b6101036106c6565b7f00000000000000000000000000000000000000000000000000000000000000006001600160a01b031633146102a657604051635cd9bc3760e11b81526020600482015260096024820152682727aa2fa7aba722a960b91b60448201526064015b60405180910390fd5b60045460ff16151581151514156103375760045460ff166102f1576040518060400160405280601281526020017149434f5f414c52454144595f41435449564560701b81525061031d565b604051806040016040528060128152602001711250d3d7d053149150511657d4105554d15160721b8152505b6040516311c19edf60e01b815260040161029d9190610d4f565b6004805460ff191682151590811790915560405160ff909116151581527f0e2fb031ee032dc02d8011dc50b816eb450cf856abd8261680dac74f72165bd29060200160405180910390a150565b7f00000000000000000000000000000000000000000000000000000000000000006001600160a01b031633146103e957604051635cd9bc3760e11b81526020600482015260096024820152682727aa2fa7aba722a960b91b604482015260640161029d565b6002600454600160a81b900460ff16600281111561040957610409610c69565b14156104505760405163fcbfb2b160e01b8152602060048201526015602482015274414c52454144595f494e5f4f50454e5f504841534560581b604482015260640161029d565b6000600454600160a81b900460ff16600281111561047057610470610c69565b1461047c57600261047f565b60015b6004805460ff60a81b1916600160a81b8360028111156104a1576104a1610c69565b02179055507fd0e47a271d69b0e6e3f9bd81c7c695bfbcb309e6ee66a23e6ad80a8f90190574600460159054906101000a900460ff166040516104e49190610c7f565b60405180910390a1565b6002600454600160a81b900460ff16600281111561050e5761050e610c69565b1461054d5760405163fcbfb2b160e01b815260206004820152600e60248201526d4e4f545f4f50454e5f504841534560901b604482015260640161029d565b336000908152600260205260409020546105a8576040805163e1c2dd0160e01b8152600481019190915260136044820152724e4f5f434c41494d41424c455f544f4b454e5360681b606482015233602482015260840161029d565b3360008181526002602090815260408083208054939055805193845290830182905290917f896e034966eaaf1adc54acc0f257056febbd300c9e47182cf761982cf1f5e430910160405180910390a16004805460405163a9059cbb60e01b815233928101929092526024820183905261010090046001600160a01b03169063a9059cbb90604401602060405180830381600087803b15801561064957600080fd5b505af115801561065d573d6000803e3d6000fd5b505050506040513d601f19601f820116820180604052508101906106819190610d62565b6106c35760405162461bcd60e51b815260206004820152601360248201527214d410d7d514905394d1915497d19052531151606a1b604482015260640161029d565b50565b6000600454600160a81b900460ff1660028111156106e6576106e6610c69565b14801561070357503360009081526003602052604090205460ff16155b156107475760408051631048818160e11b81526004810191909152600b60448201526a1393d517d0531313d5d15160aa1b606482015233602482015260840161029d565b60045460ff161561078b5760405163d5a08a6b60e01b815260206004820152600d60248201526c1250d3d7d254d7d4105554d151609a1b604482015260640161029d565b600034116107cd576040516375065fb360e01b815260206004820152600e60248201526d414d4f554e545f49535f5a45524f60901b604482015260640161029d565b336000908152600160205260408120546107e8903490610d95565b90506000346000546107fa9190610d95565b90506000600454600160a81b900460ff16600281111561081c5761081c610c69565b14156108a35761086282685150ae84a8cdf0000060405180604001604052806014815260200173105093d59157d4115494d3d3905317d31253525560621b815250610b7b565b6108a38169032d26d12e980b60000060405180604001604052806014815260200173105093d59157d250d3d7d1d3d05317d31253525560621b815250610b7b565b6001600454600160a81b900460ff1660028111156108c3576108c3610c69565b14156109095761090982683635c9adc5dea0000060405180604001604052806014815260200173105093d59157d4115494d3d3905317d31253525560621b815250610b7b565b6000600454600160a81b900460ff16600281111561092957610929610c69565b1461096f5761096f8169065a4da25d3016c0000060405180604001604052806014815260200173105093d59157d250d3d7d1d3d05317d31253525560621b815250610b7b565b6000349050806000808282546109859190610d95565b909155505033600090815260016020526040812080548392906109a9908490610d95565b9091555060009050600454600160a81b900460ff1660028111156109cf576109cf610c69565b14806109f857506001600454600160a81b900460ff1660028111156109f6576109f6610c69565b145b15610a6b5733600090815260016020526040812054610a1690610ba7565b33600081815260026020908152604091829020849055815192835234908301529192507f906faaf913a60f38b5e8f2d6f5b163239bac2d994fa1a5d21751a51587a9405791015b60405180910390a150505050565b6000610a7634610ba7565b6004805460405163a9059cbb60e01b81523392810192909252602482018390529192506101009091046001600160a01b03169063a9059cbb90604401602060405180830381600087803b158015610acc57600080fd5b505af1158015610ae0573d6000803e3d6000fd5b505050506040513d601f19601f82011682018060405250810190610b049190610d62565b610b465760405162461bcd60e51b815260206004820152601360248201527214d410d7d514905394d1915497d19052531151606a1b604482015260640161029d565b604080513381523460208201527f906faaf913a60f38b5e8f2d6f5b163239bac2d994fa1a5d21751a51587a940579101610a5d565b81831115610ba25780838360405163cd188a1360e01b815260040161029d93929190610dad565b505050565b6000670de0b6b3a76400006005600460019054906101000a90046001600160a01b03166001600160a01b031663313ce5676040518163ffffffff1660e01b815260040160206040518083038186803b158015610c0257600080fd5b505afa158015610c16573d6000803e3d6000fd5b505050506040513d601f19601f82011682018060405250810190610c3a9190610dd2565b610c4590600a610ed9565b610c4f9085610ee8565b610c599190610ee8565b610c639190610f07565b92915050565b634e487b7160e01b600052602160045260246000fd5b6020810160038310610ca157634e487b7160e01b600052602160045260246000fd5b91905290565b80151581146106c357600080fd5b600060208284031215610cc757600080fd5b8135610cd281610ca7565b9392505050565b600060208284031215610ceb57600080fd5b81356001600160a01b0381168114610cd257600080fd5b6000815180845260005b81811015610d2857602081850181015186830182015201610d0c565b81811115610d3a576000602083870101525b50601f01601f19169290920160200192915050565b602081526000610cd26020830184610d02565b600060208284031215610d7457600080fd5b8151610cd281610ca7565b634e487b7160e01b600052601160045260246000fd5b60008219821115610da857610da8610d7f565b500190565b606081526000610dc06060830186610d02565b60208301949094525060400152919050565b600060208284031215610de457600080fd5b815160ff81168114610cd257600080fd5b600181815b80851115610e30578160001904821115610e1657610e16610d7f565b80851615610e2357918102915b93841c9390800290610dfa565b509250929050565b600082610e4757506001610c63565b81610e5457506000610c63565b8160018114610e6a5760028114610e7457610e90565b6001915050610c63565b60ff841115610e8557610e85610d7f565b50506001821b610c63565b5060208310610133831016604e8410600b8410161715610eb3575081810a610c63565b610ebd8383610df5565b8060001904821115610ed157610ed1610d7f565b029392505050565b6000610cd260ff841683610e38565b6000816000190483118215151615610f0257610f02610d7f565b500290565b600082610f2457634e487b7160e01b600052601260045260246000fd5b50049056fea2646970667358221220a7999be5868c89e53b0b1b63b684a12b459ef430bfa5225ee31aac5ab423146b64736f6c63430008090033",
  "linkReferences": {},
  "deployedLinkReferences": {}
}